{
  "contractName": "Sale",
  "abi": [
    {
      "inputs": [
        {
          "internalType": "address",
          "name": "_tokenAddress",
          "type": "address"
        }
      ],
      "stateMutability": "nonpayable",
      "type": "constructor"
    },
    {
      "inputs": [],
      "name": "nftAddress",
      "outputs": [
        {
          "internalType": "contract ERC721URIStorage",
          "name": "",
          "type": "address"
        }
      ],
      "stateMutability": "view",
      "type": "function",
      "constant": true
    },
    {
      "inputs": [
        {
          "internalType": "uint256",
          "name": "",
          "type": "uint256"
        }
      ],
      "name": "tokenPrice",
      "outputs": [
        {
          "internalType": "uint256",
          "name": "",
          "type": "uint256"
        }
      ],
      "stateMutability": "view",
      "type": "function",
      "constant": true
    },
    {
      "inputs": [
        {
          "internalType": "uint256",
          "name": "_tokenId",
          "type": "uint256"
        },
        {
          "internalType": "uint256",
          "name": "_price",
          "type": "uint256"
        }
      ],
      "name": "setForSale",
      "outputs": [],
      "stateMutability": "nonpayable",
      "type": "function"
    },
    {
      "inputs": [
        {
          "internalType": "uint256",
          "name": "_tokenId",
          "type": "uint256"
        }
      ],
      "name": "purchaseToken",
      "outputs": [],
      "stateMutability": "payable",
      "type": "function",
      "payable": true
    }
  ],
  "bytecode": "0x608060405234801561001057600080fd5b50604051610bc7380380610bc7833981810160405281019061003291906100dc565b80600160006101000a81548173ffffffffffffffffffffffffffffffffffffffff021916908373ffffffffffffffffffffffffffffffffffffffff16021790555050610109565b600080fd5b600073ffffffffffffffffffffffffffffffffffffffff82169050919050565b60006100a98261007e565b9050919050565b6100b98161009e565b81146100c457600080fd5b50565b6000815190506100d6816100b0565b92915050565b6000602082840312156100f2576100f1610079565b5b6000610100848285016100c7565b91505092915050565b610aaf806101186000396000f3fe60806040526004361061003f5760003560e01c806317fcfe22146100445780635bf8633a1461006d578063c2db2c4214610098578063d4ddce8a146100b4575b600080fd5b34801561005057600080fd5b5061006b60048036038101906100669190610644565b6100f1565b005b34801561007957600080fd5b50610082610367565b60405161008f9190610703565b60405180910390f35b6100b260048036038101906100ad919061071e565b61038d565b005b3480156100c057600080fd5b506100db60048036038101906100d6919061071e565b6105f1565b6040516100e8919061075a565b60405180910390f35b6000600160009054906101000a900473ffffffffffffffffffffffffffffffffffffffff1673ffffffffffffffffffffffffffffffffffffffff16636352211e846040518263ffffffff1660e01b815260040161014e919061075a565b602060405180830381865afa15801561016b573d6000803e3d6000fd5b505050506040513d601f19601f8201168201806040525081019061018f91906107b3565b90503373ffffffffffffffffffffffffffffffffffffffff168173ffffffffffffffffffffffffffffffffffffffff16146101ff576040517f08c379a00000000000000000000000000000000000000000000000000000000081526004016101f69061083d565b60405180910390fd5b60008211610242576040517f08c379a0000000000000000000000000000000000000000000000000000000008152600401610239906108a9565b60405180910390fd5b3073ffffffffffffffffffffffffffffffffffffffff16600160009054906101000a900473ffffffffffffffffffffffffffffffffffffffff1673ffffffffffffffffffffffffffffffffffffffff1663081812fc856040518263ffffffff1660e01b81526004016102b4919061075a565b602060405180830381865afa1580156102d1573d6000803e3d6000fd5b505050506040513d601f19601f820116820180604052508101906102f591906107b3565b73ffffffffffffffffffffffffffffffffffffffff161461034b576040517f08c379a00000000000000000000000000000000000000000000000000000000081526004016103429061093b565b60405180910390fd5b8160008085815260200190815260200160002081905550505050565b600160009054906101000a900473ffffffffffffffffffffffffffffffffffffffff1681565b60008060008381526020019081526020016000205490506000600160009054906101000a900473ffffffffffffffffffffffffffffffffffffffff1673ffffffffffffffffffffffffffffffffffffffff16636352211e846040518263ffffffff1660e01b8152600401610401919061075a565b602060405180830381865afa15801561041e573d6000803e3d6000fd5b505050506040513d601f19601f8201168201806040525081019061044291906107b3565b905081341015610487576040517f08c379a000000000000000000000000000000000000000000000000000000000815260040161047e906109a7565b60405180910390fd5b8073ffffffffffffffffffffffffffffffffffffffff163373ffffffffffffffffffffffffffffffffffffffff1614156104f6576040517f08c379a00000000000000000000000000000000000000000000000000000000081526004016104ed90610a13565b60405180910390fd5b60008190508073ffffffffffffffffffffffffffffffffffffffff166108fc349081150290604051600060405180830381858888f19350505050158015610541573d6000803e3d6000fd5b50600160009054906101000a900473ffffffffffffffffffffffffffffffffffffffff1673ffffffffffffffffffffffffffffffffffffffff166342842e0e8333876040518463ffffffff1660e01b81526004016105a193929190610a42565b600060405180830381600087803b1580156105bb57600080fd5b505af11580156105cf573d6000803e3d6000fd5b5050505060008060008681526020019081526020016000208190555050505050565b60006020528060005260406000206000915090505481565b600080fd5b6000819050919050565b6106218161060e565b811461062c57600080fd5b50565b60008135905061063e81610618565b92915050565b6000806040838503121561065b5761065a610609565b5b60006106698582860161062f565b925050602061067a8582860161062f565b9150509250929050565b600073ffffffffffffffffffffffffffffffffffffffff82169050919050565b6000819050919050565b60006106c96106c46106bf84610684565b6106a4565b610684565b9050919050565b60006106db826106ae565b9050919050565b60006106ed826106d0565b9050919050565b6106fd816106e2565b82525050565b600060208201905061071860008301846106f4565b92915050565b60006020828403121561073457610733610609565b5b60006107428482850161062f565b91505092915050565b6107548161060e565b82525050565b600060208201905061076f600083018461074b565b92915050565b600061078082610684565b9050919050565b61079081610775565b811461079b57600080fd5b50565b6000815190506107ad81610787565b92915050565b6000602082840312156107c9576107c8610609565b5b60006107d78482850161079e565b91505092915050565b600082825260208201905092915050565b7f63616c6c6572206973206e6f74206f776e657200000000000000000000000000600082015250565b60006108276013836107e0565b9150610832826107f1565b602082019050919050565b600060208201905081810360008301526108568161081a565b9050919050565b7f7072696365206973207a65726f207468616e206c6f7765720000000000000000600082015250565b60006108936018836107e0565b915061089e8261085d565b602082019050919050565b600060208201905081810360008301526108c281610886565b9050919050565b7f746f6b656e206f776e657220646964206e6f7420617070726f766520636f6e7460008201527f7261637441646472657373730000000000000000000000000000000000000000602082015250565b6000610925602c836107e0565b9150610930826108c9565b604082019050919050565b6000602082019050818103600083015261095481610918565b9050919050565b7f63616c6c6572206b6c617920746f6b656e2073656c6c65720000000000000000600082015250565b60006109916018836107e0565b915061099c8261095b565b602082019050919050565b600060208201905081810360008301526109c081610984565b9050919050565b7f63616c6c657220697320746f6b656e2073656c6c657200000000000000000000600082015250565b60006109fd6016836107e0565b9150610a08826109c7565b602082019050919050565b60006020820190508181036000830152610a2c816109f0565b9050919050565b610a3c81610775565b82525050565b6000606082019050610a576000830186610a33565b610a646020830185610a33565b610a71604083018461074b565b94935050505056fea2646970667358221220a9b783f24337e538ced52725b84fe8bbccdd9ade97f0c2e2122d0aaf618b825b64736f6c634300080a0033",
  "immutableReferences": {},
  "source": "// SPDX-License-Identifier: GPL-3.0\npragma solidity ^0.8.0;\n\n\n\nimport \"../node_modules/@openzeppelin/contracts/token/ERC721/extensions/ERC721URIStorage.sol\";\n\n\n\n\ncontract Sale{\n   \n\n    mapping (uint256 => uint256) public tokenPrice;\n    ERC721URIStorage public nftAddress;\n\n    constructor(address _tokenAddress) {\n          nftAddress =  ERC721URIStorage(_tokenAddress);\n    }\n     \n\n\n    function setForSale(uint256 _tokenId, uint256 _price) public {\n\n        //     \n        address tokenOwner = nftAddress.ownerOf(_tokenId);\n        require(tokenOwner == msg.sender, 'caller is not owner');\n        require(_price > 0,'price is zero than lower');\n        require(nftAddress.getApproved(_tokenId) == address(this),'token owner did not approve contractAddresss');  \n        tokenPrice[_tokenId] = _price;\n    }\n\n    \n    function purchaseToken(uint256 _tokenId) public payable{\n        //        payable .\n        uint256 price = tokenPrice[_tokenId];\n        address tokenSeller = nftAddress.ownerOf(_tokenId);\n        require(msg.value >= price, \"caller klay token seller\");\n        require(msg.sender != tokenSeller,\"caller is token seller\");  //   \n        address payable payableTokenSeller = payable(tokenSeller);\n\n        //        . \n        payableTokenSeller.transfer(msg.value);\n        //      . \n        nftAddress.safeTransferFrom(tokenSeller, msg.sender, _tokenId);\n        tokenPrice[_tokenId] = 0;  \n    }\n    \n}\n",
  "sourcePath": "/Users/anhyeongjun/Desktop/Angel/contract/contracts/Sale.sol",
  "compiler": {
    "name": "solc",
    "version": "0.8.10+commit.fc410830.Emscripten.clang"
  },
  "schemaVersion": "3.4.4",
  "updatedAt": "2022-03-31T14:29:13.701Z",
  "networkType": "ethereum",
  "devdoc": {
    "kind": "dev",
    "methods": {},
    "version": 1
  },
  "userdoc": {
    "kind": "user",
    "methods": {},
    "version": 1
  }
}